{
  "address": "0x663aF42c414959035708b6d8CC073cD294d21E81",
  "abi": [
    {
      "inputs": [
        {
          "internalType": "address",
          "name": "priceFeedAddress",
          "type": "address"
        }
      ],
      "stateMutability": "nonpayable",
      "type": "constructor"
    },
    {
      "inputs": [],
      "name": "FundMe__CallFailed",
      "type": "error"
    },
    {
      "inputs": [],
      "name": "FundMe__NotEnoughETH",
      "type": "error"
    },
    {
      "inputs": [],
      "name": "FundMe__NotOwner",
      "type": "error"
    },
    {
      "stateMutability": "payable",
      "type": "fallback"
    },
    {
      "inputs": [],
      "name": "fund",
      "outputs": [],
      "stateMutability": "payable",
      "type": "function"
    },
    {
      "inputs": [],
      "name": "i_owner",
      "outputs": [
        {
          "internalType": "address",
          "name": "",
          "type": "address"
        }
      ],
      "stateMutability": "view",
      "type": "function"
    },
    {
      "inputs": [
        {
          "internalType": "address",
          "name": "",
          "type": "address"
        }
      ],
      "name": "s_addressToAmountFunded",
      "outputs": [
        {
          "internalType": "uint256",
          "name": "",
          "type": "uint256"
        }
      ],
      "stateMutability": "view",
      "type": "function"
    },
    {
      "inputs": [
        {
          "internalType": "uint256",
          "name": "",
          "type": "uint256"
        }
      ],
      "name": "s_funders",
      "outputs": [
        {
          "internalType": "address",
          "name": "",
          "type": "address"
        }
      ],
      "stateMutability": "view",
      "type": "function"
    },
    {
      "inputs": [],
      "name": "withdraw",
      "outputs": [],
      "stateMutability": "nonpayable",
      "type": "function"
    },
    {
      "stateMutability": "payable",
      "type": "receive"
    }
  ],
  "transactionHash": "0x9c2d51d46065d5de3f480a453d5cd98d75f56607f1ff95236fced07b3a741cbe",
  "args": [
    "0x78F9e60608bF48a1155b4B2A5e31F32318a1d85F"
  ],
  "numDeployments": 1,
  "solcInputHash": "8a21d6c182e5fd450e37bd170713e42b",
  "bytecode": "0x60a060405234801561001057600080fd5b50604051610d54380380610d5483398181016040528101906100329190610110565b3373ffffffffffffffffffffffffffffffffffffffff1660808173ffffffffffffffffffffffffffffffffffffffff168152505080600260006101000a81548173ffffffffffffffffffffffffffffffffffffffff021916908373ffffffffffffffffffffffffffffffffffffffff1602179055505061013d565b600080fd5b600073ffffffffffffffffffffffffffffffffffffffff82169050919050565b60006100dd826100b2565b9050919050565b6100ed816100d2565b81146100f857600080fd5b50565b60008151905061010a816100e4565b92915050565b600060208284031215610126576101256100ad565b5b6000610134848285016100fb565b91505092915050565b608051610bf561015f6000396000818161026701526104de0152610bf56000f3fe60806040526004361061004e5760003560e01c80631bf6132d146100675780633ccfd60b146100a457806354861af7146100bb578063b60d4288146100f8578063dba6335f146101025761005d565b3661005d5761005b61012d565b005b61006561012d565b005b34801561007357600080fd5b5061008e600480360381019061008991906106e6565b61024d565b60405161009b919061072c565b60405180910390f35b3480156100b057600080fd5b506100b9610265565b005b3480156100c757600080fd5b506100e260048036038101906100dd9190610773565b61049d565b6040516100ef91906107af565b60405180910390f35b61010061012d565b005b34801561010e57600080fd5b506101176104dc565b60405161012491906107af565b60405180910390f35b6802b5e3af16b188000061016c600260009054906101000a900473ffffffffffffffffffffffffffffffffffffffff163461050090919063ffffffff16565b10156101a4576040517fb514e4ed00000000000000000000000000000000000000000000000000000000815260040160405180910390fd5b6000339080600181540180825580915050600190039060005260206000200160009091909190916101000a81548173ffffffffffffffffffffffffffffffffffffffff021916908373ffffffffffffffffffffffffffffffffffffffff16021790555034600160003373ffffffffffffffffffffffffffffffffffffffff1673ffffffffffffffffffffffffffffffffffffffff16815260200190815260200160002081905550565b60016020528060005260406000206000915090505481565b7f000000000000000000000000000000000000000000000000000000000000000073ffffffffffffffffffffffffffffffffffffffff163373ffffffffffffffffffffffffffffffffffffffff1614156102eb576040517f579610db00000000000000000000000000000000000000000000000000000000815260040160405180910390fd5b60005b6000805490508110156103965760008082815481106103105761030f6107ca565b5b9060005260206000200160009054906101000a900473ffffffffffffffffffffffffffffffffffffffff1690506000600160008373ffffffffffffffffffffffffffffffffffffffff1673ffffffffffffffffffffffffffffffffffffffff1681526020019081526020016000208190555050808061038e90610828565b9150506102ee565b50600067ffffffffffffffff8111156103b2576103b1610871565b5b6040519080825280602002602001820160405280156103e05781602001602082028036833780820191505090505b50600090805190602001906103f69291906105dc565b5060003373ffffffffffffffffffffffffffffffffffffffff164760405161041d906108d1565b60006040518083038185875af1925050503d806000811461045a576040519150601f19603f3d011682016040523d82523d6000602084013e61045f565b606091505b505090508061049a576040517fa6139a6400000000000000000000000000000000000000000000000000000000815260040160405180910390fd5b50565b600081815481106104ad57600080fd5b906000526020600020016000915054906101000a900473ffffffffffffffffffffffffffffffffffffffff1681565b7f000000000000000000000000000000000000000000000000000000000000000081565b60008061050c8361053c565b90506000670de0b6b3a7640000858361052591906108e6565b61052f919061096f565b9050809250505092915050565b6000808273ffffffffffffffffffffffffffffffffffffffff1663feaf968c6040518163ffffffff1660e01b815260040160a06040518083038186803b15801561058557600080fd5b505afa158015610599573d6000803e3d6000fd5b505050506040513d601f19601f820116820180604052508101906105bd9190610a2d565b5050509150506402540be400816105d49190610aa8565b915050919050565b828054828255906000526020600020908101928215610655579160200282015b828111156106545782518260006101000a81548173ffffffffffffffffffffffffffffffffffffffff021916908373ffffffffffffffffffffffffffffffffffffffff160217905550916020019190600101906105fc565b5b5090506106629190610666565b5090565b5b8082111561067f576000816000905550600101610667565b5090565b600080fd5b600073ffffffffffffffffffffffffffffffffffffffff82169050919050565b60006106b382610688565b9050919050565b6106c3816106a8565b81146106ce57600080fd5b50565b6000813590506106e0816106ba565b92915050565b6000602082840312156106fc576106fb610683565b5b600061070a848285016106d1565b91505092915050565b6000819050919050565b61072681610713565b82525050565b6000602082019050610741600083018461071d565b92915050565b61075081610713565b811461075b57600080fd5b50565b60008135905061076d81610747565b92915050565b60006020828403121561078957610788610683565b5b60006107978482850161075e565b91505092915050565b6107a9816106a8565b82525050565b60006020820190506107c460008301846107a0565b92915050565b7f4e487b7100000000000000000000000000000000000000000000000000000000600052603260045260246000fd5b7f4e487b7100000000000000000000000000000000000000000000000000000000600052601160045260246000fd5b600061083382610713565b91507fffffffffffffffffffffffffffffffffffffffffffffffffffffffffffffffff821415610866576108656107f9565b5b600182019050919050565b7f4e487b7100000000000000000000000000000000000000000000000000000000600052604160045260246000fd5b600081905092915050565b50565b60006108bb6000836108a0565b91506108c6826108ab565b600082019050919050565b60006108dc826108ae565b9150819050919050565b60006108f182610713565b91506108fc83610713565b9250817fffffffffffffffffffffffffffffffffffffffffffffffffffffffffffffffff0483118215151615610935576109346107f9565b5b828202905092915050565b7f4e487b7100000000000000000000000000000000000000000000000000000000600052601260045260246000fd5b600061097a82610713565b915061098583610713565b92508261099557610994610940565b5b828204905092915050565b600069ffffffffffffffffffff82169050919050565b6109bf816109a0565b81146109ca57600080fd5b50565b6000815190506109dc816109b6565b92915050565b6000819050919050565b6109f5816109e2565b8114610a0057600080fd5b50565b600081519050610a12816109ec565b92915050565b600081519050610a2781610747565b92915050565b600080600080600060a08688031215610a4957610a48610683565b5b6000610a57888289016109cd565b9550506020610a6888828901610a03565b9450506040610a7988828901610a18565b9350506060610a8a88828901610a18565b9250506080610a9b888289016109cd565b9150509295509295909350565b6000610ab3826109e2565b9150610abe836109e2565b9250827f7fffffffffffffffffffffffffffffffffffffffffffffffffffffffffffffff0482116000841360008413161615610afd57610afc6107f9565b5b817f80000000000000000000000000000000000000000000000000000000000000000583126000841260008413161615610b3a57610b396107f9565b5b827f80000000000000000000000000000000000000000000000000000000000000000582126000841360008412161615610b7757610b766107f9565b5b827f7fffffffffffffffffffffffffffffffffffffffffffffffffffffffffffffff0582126000841260008412161615610bb457610bb36107f9565b5b82820290509291505056fea2646970667358221220edbf646542dfdfc2c68815fe8f76fb94756b90319d742d4066e9b20043bd2cba64736f6c63430008090033",
  "devdoc": {
    "kind": "dev",
    "methods": {},
    "version": 1
  },
  "userdoc": {
    "kind": "user",
    "methods": {},
    "version": 1
  },
  "storageLayout": {
    "storage": [
      {
        "astId": 66,
        "contract": "contracts/FundMe.sol:FundMe",
        "label": "s_funders",
        "offset": 0,
        "slot": "0",
        "type": "t_array(t_address)dyn_storage"
      },
      {
        "astId": 70,
        "contract": "contracts/FundMe.sol:FundMe",
        "label": "s_addressToAmountFunded",
        "offset": 0,
        "slot": "1",
        "type": "t_mapping(t_address,t_uint256)"
      },
      {
        "astId": 75,
        "contract": "contracts/FundMe.sol:FundMe",
        "label": "s_priceFeed",
        "offset": 0,
        "slot": "2",
        "type": "t_contract(AggregatorV3Interface)45"
      }
    ],
    "types": {
      "t_address": {
        "encoding": "inplace",
        "label": "address",
        "numberOfBytes": "20"
      },
      "t_array(t_address)dyn_storage": {
        "base": "t_address",
        "encoding": "dynamic_array",
        "label": "address[]",
        "numberOfBytes": "32"
      },
      "t_contract(AggregatorV3Interface)45": {
        "encoding": "inplace",
        "label": "contract AggregatorV3Interface",
        "numberOfBytes": "20"
      },
      "t_mapping(t_address,t_uint256)": {
        "encoding": "mapping",
        "key": "t_address",
        "label": "mapping(address => uint256)",
        "numberOfBytes": "32",
        "value": "t_uint256"
      },
      "t_uint256": {
        "encoding": "inplace",
        "label": "uint256",
        "numberOfBytes": "32"
      }
    }
  }
}